:0400000044EF00F0D9
:10000800FACF02F0FBCF03F0E9CF04F0EACF05F016
:10001800E1CF06F0E2CF07F0D9CF08F0DACF09F048
:10002800F3CF0AF0F4CF0BF0F6CF0CF0F7CF0DF0CA
:10003800F8CF0EF0F5CF0FF0F2A201D001D003D027
:10004800CFEC08F000D00FC0F5FF0EC0F8FF0DC0D0
:10005800F7FF0CC0F6FF0BC0F4FF0AC0F3FF09C09E
:10006800DAFF08C0D9FF07C0E2FF06C0E1FF05C0FC
:10007800EAFF04C0E9FF03C0FBFF02C0FAFF11005A
:0400880046EF08F047
:10060000464C4F573D20006D6C2F682000000F0EA8
:10061000236E1DC024F01EC025F01FC026F0232825
:10062000276E04D0D890263225322432272EFAD7CE
:1006300024502A6E0F0E236E20C024F021C025F016
:1006400022C026F02328276E04D0D89026322532E7
:100650002432272EFAD72450296E2A50D8B40BD032
:1006600029502A600FD02A5000082924236E190E21
:10067000235CD8A007D020C01DF021C01EF022C0EE
:100680001FF012002950D8B40BD02A5029600FD087
:10069000295000082A24236E190E235CD8A007D005
:1006A0001DC01DF01EC01EF01FC01FF01200236EE3
:1006B000060E286E23501FBE288E22BE288C1E8E4A
:1006C000FF0E1D16FF0E1E16000E1F16218EFF0EAA
:1006D0002016FF0E2116000E221629502A6018D06F
:1006E000D890203621362236290629502A18D8B427
:1006F0000BD028062850070BD8B406D0F1D7D890D5
:100700001F321E321D322A2A29502A62F8D71AD0E7
:100710002A50296017D0D8901D361E361F362A065B
:1007200029502A18D8B40BD028062850070BD8B463
:1007300006D0F1D7D890223221322032292A2950EE
:100740002A62F8D728AE0CD0FF0E1D1AFF0E1E1A13
:10075000FF0E1F1A010E1D26000E1E22000E1F2264
:1007600028AC0CD0FF0E201AFF0E211AFF0E221A01
:10077000010E2026000E2122000E2222236E000EE2
:10078000286E23501D5020261E5021221F50222249
:1007900022AE10D0FF0E201AFF0E211AFF0E221AD1
:1007A000010E2026000E2122000E2222236E010EB1
:1007B000286E235020C010F021C011F022C012F08A
:1007C0002AC013F028C014F030EC07F012C01FF05C
:1007D00011C01EF010C01DF012003FC018F072ECE6
:1007E00008F01AC032F019C031F018C030F030C033
:1007F00018F031C019F032C01AF0000E1B6E200E36
:100800001C6E410E1D6ECAEC05F01AC032F019C004
:1008100031F018C030F03E500A0D4050F324186EED
:10082000000EF420196EE7EC07F01AC01FF019C093
:100830001EF018C01DF030C020F031C021F032C0D1
:1008400022F007EC03F01FC047F01EC046F01DC0A9
:1008500045F0000E336E400E346E450E356E33C0DB
:1008600018F034C019F035C01AF0660E1B6EE60E93
:100870001C6E3F0E1D6E3CEC05F01AC038F019C01E
:1008800037F018C036F036C018F037C019F038C04D
:100890001AF0000E1B6E610E1C6E450E1D6ECAEC2A
:1008A00005F01AC038F019C037F018C036F0000E45
:1008B0002A6E450E296E36C02BF037C02CF038C09A
:1008C0002DF028EC08F0000E186E7A0E196E440E0A
:1008D0001A6E45C01BF046C01CF047C01DF0CAECA4
:1008E00005F01AC03BF019C03AF018C039F039C011
:1008F0001DF03AC01EF03BC01FF0000E206E000E2F
:10090000216E3F0E226E07EC03F01FC03BF01EC0AD
:100910003AF01DC039F039C010F03AC011F03BC0B8
:1009200012F04FEC06F010C03CF011C03DF02E6EFE
:10093000010E486E2E50120009EC08F0D0EC06F0C3
:100940002F6E000E3E6E2F502F6E000E406E2F50F9
:100950002F6E000E3F6E2F5082B819D03E2A090E1E
:100960003E6404D02F6E000E3E6E2F502F6E000E90
:10097000416E2F5009D00D0E2F6EFB0EE82EFED7C4
:100980002F2EFCD700D0412A030E4164F4D782BA3F
:1009900019D0402A090E406404D02F6E000E406E1C
:1009A0002F502F6E000E416E2F5009D00D0E2F6E5E
:1009B000FB0EE82EFED72F2EFCD700D0412A030EC7
:1009C0004164F4D782BC19D03F2A090E3F6404D099
:1009D0002F6E000E3F6E2F502F6E000E416E2F5067
:1009E00009D00D0E2F6EFB0EE82EFED72F2EFCD752
:1009F00000D0412A030E4164F4D782BE1DD03E666A
:100A000005D0406603D03F50D8B416D0EDEC03F0CB
:100A100010D0090E826E87EC08F00C0E826E87EC07
:100A200008F0060E826E87EC08F0030E826E87ECEB
:100A300008F04804D8B4EDD7BCEC08F08CEC07F013
:100A4000C30E2F6ECD0EE82EFED72F2EFCD72F6EA5
:100A5000000E416E2F50050E416401D07DD70D0E62
:100A60002F6EFB0EE82EFED72F2EFCD700D0412A8A
:100A7000050E4164F4D770D70F0E1E6E18C01FF01C
:100A800019C020F01AC021F01E28226E04D0D89080
:100A9000213220321F32222EFAD71F50266E2666B0
:100AA00007D0000E186E000E196E000E1A6E12009E
:100AB0000F0E1E6E1BC01FF01CC020F01DC021F0C9
:100AC0001E28226E04D0D890213220321F32222ECE
:100AD000FAD71F50286E286607D0000E186E000E39
:100AE000196E000E1A6E120028507B0F26261AC0AF
:100AF00028F01D50281A800E2816198E1C8EFF0E05
:100B00001B16FF0E1C16000E1D16000E236E000E87
:100B1000246E000E256E1E6E070E276E1E5018A046
:100B200006D01B5023261C5024221D502522D8906D
:100B30001A3219321832D8901B361C361D36272E21
:100B4000EED71E6E090E276E1E5018A006D01B5041
:100B500023261C5024221D502522D8901A321932E7
:100B60001832D890253224322332272EEED723C0D4
:100B700010F024C011F025C012F026C013F028C0D8
:100B800014F030EC07F012C01AF011C019F010C0C8
:100B900018F012000F0E1E6E18C01FF019C020F0C2
:100BA0001AC021F01E28226E04D0D89021322032A3
:100BB0001F32222EFAD71F50276E276607D0000E4D
:100BC000186E000E196E000E1A6E12000F0E1E6EB9
:100BD0001BC01FF01CC020F01DC021F01E28226E7B
:100BE00004D0D890213220321F32222EFAD71F5043
:100BF000286E286607D0000E186E000E196E000EC3
:100C00001A6E1200000E236E000E246E000E256E6A
:100C10002850890F275E1AC028F01D50281A800E10
:100C20002816198EFF0E1816FF0E1916000E1A162A
:100C30001C8EFF0E1B16FF0E1C16000E1D161E6EC0
:100C4000180E266E1E50D8902336243625361B509B
:100C5000185C1C5019581D501A58D8A007D01B50AA
:100C6000185E1C50195A1D501A5A2380D8901836F5
:100C700019361A36262EE7D723C010F024C011F0FB
:100C800025C012F027C013F028C014F030EC07F094
:100C900012C01AF011C019F010C018F012000F0E97
:100CA000146E10C015F011C016F012C017F0142801
:100CB000186E04D0D890173216321532182EFAD783
:100CC00015501E6E1E6609D0000E106E000E116EBD
:100CD000000E126E000E136E1200170E146E10C06E
:100CE00015F011C016F012C017F01428186E04D0B9
:100CF000D890173216321532182EFAD71550196EB1
:100D0000118EFF0E1016FF0E1116000E1216105047
:100D10001A6E11501B6E12501C6E1D6A8E0E1E5ED6
:100D20001EAE16D01E50800A8F0FD8B009D0000E0C
:100D3000106E000E116E000E126E000E136E120079
:100D4000D8901D321C321B321A321E3EF9D714D0F5
:100D5000170E1E640FD0000E106E000E116E000EE6
:100D6000126E000E136E1200D8901A361B361C3607
:100D70001D361E061E66F8D71950D8B408D01D1EA1
:100D80001C1E1B1E1A6C000E1B221C221D221AC0C8
:100D900010F01BC011F01CC012F01DC013F01200A7
:100DA000010E936E000E816E1A0E136EF80EE82E71
:100DB000FED7132EFCD700F0136E300E106E1350BA
:100DC000C6EC08F0080E136EC90EE82EFED7132EDF
:100DD000FCD700D0136E300E106E1350C6EC08F026
:100DE000FA0E00F0E82EFDD7136E300E106E135081
:100DF000C6EC08F0FA0E00F0E82EFDD7136E200EB8
:100E0000106E1350C6EC08F0FA0E00F0E82EFDD775
:100E1000136E280E106E1350BDEC07F0136E080E03
:100E2000106E1350BDEC07F0136E010E106E1350D0
:100E3000BDEC07F0030E136E970EE82EFED7132EAF
:100E4000FCD700D0136E060E106E1350BDEC07F0E9
:100E5000136E0C0E106E1350BDEC07F08A84120056
:100E60001350D8B405D0105011101210D8A40CD0C3
:100E7000000E106E000E116E000E126E1200132A7C
:100E8000D890123211321032000E1014156E000E6E
:100E90001114166EFE0E1214176E15501610171040
:100EA000D8B40CD0ECD7132A010E1026000E112254
:100EB000000E1222D890123211321032000E10148D
:100EC000156E000E1114166EFF0E1214176E1550CB
:100ED00016101710D8B406D0E6D71306D8901036DF
:100EE0001136123611AEF9D713A0119ED8901332D5
:100EF0001350176E166A156A1550101216501112FB
:100F0000175012121450D8A4128E10C010F011C035
:100F100011F012C012F01200166E010E156E16506E
:100F2000B2EC08F0060E156E000E146E5CEC08F0C4
:100F3000166E010E156E1650A8EC08F042C013F0A4
:100F4000D7EC08F044C013F0D7EC08F0166E2E0E64
:100F5000136E1650D7EC08F043C013F0D7EC08F02E
:100F6000166E060E156E1650A8EC08F0060E156EDD
:100F7000070E146E5CEC08F01200116E000E126E7B
:100F8000115081500F0B816E1050F00B126E81507A
:100F90001210816E8A82FA0E00F0E82EFDD78A9236
:100FA0001038F00B106EFA0E00F0E82EFDD78150CD
:100FB0000F0B816E1050F00B126E81501210816E6B
:100FC0008A82FA0E00F0E82EFDD78A9212001B6E7C
:100FD000000E1C6E1B5019AE08D0186C191ED8B02C
:100FE000192A1B6E010E1C6E1B5018C010F019C080
:100FF00011F0126A1B6E8E0E136E1B501CC014F083
:1010000030EC07F012C01AF011C019F010C018F03F
:101010001200520ED36E000E0F010F013A6FF00E48
:10102000946E000E826E000E0F010F01396F010EDB
:10103000936E000E816E0F0E926E000E0F010F0167
:10104000386F000E806E9380F292F288F28E12005A
:1010500029C0D9FF2AC0DAFFDECF18F0DECF19F0A1
:10106000DDCF1AF02BC01BF02CC01CF02DC01DF0E2
:101070003CEC05F029C0D9FF2AC0DAFF18C0DEFF1A
:1010800019C0DEFF1AC0DDFFDD52120000EE30F0A5
:10109000180EEE6AE806FDE1BC0EF66E110EF76E54
:1010A000000EF86E0900F5CF48F0000EF86E060E3F
:1010B000F76E00019CEF04F00BD014C0F6FF15C0D2
:1010C000F7FF0800F5CF13F0D7EC08F0144A152A03
:1010D00014C0F6FF15C0F7FF0800F5500009D8B49A
:1010E0001200EBD71850106E116A126A1B6E8E0E2A
:1010F000136E1B501C6E000E146E1C5030EC07F06B
:1011000012C01AF011C019F010C018F01200000E31
:10111000116E000E106E06D0FA0E00F0E82EFDD70C
:10112000104A112A3C50105C3D501158D8B01200A2
:10113000F3D78A9413C010F0BDEC07F0030E146EC1
:10114000970EE82EFED7142EFCD700D08A8412000A
:101150001550BF0F136E99EC08F0FA0E00F0E82E50
:10116000FDD7120015507F0F136E99EC08F0FA0EA0
:1011700000F0E82EFDD712003E50300F426E405076
:10118000300F446E3F50300F436E120010C081FF8D
:101190008A82FA0E00F0E82EFDD78A921200000E25
:1011A000826E016E000E486E0150F29212008A8427
:0E11B00013C010F0BDEC07F08A94120001008D
:020000040030CA
:08000000FF281F3CFFBF81FF38
:00000001FF
